{
  "transactions": [
    {
      "hash": "0x1dd19aae2384086a59455e87a321ee4982ca86f2764d293d0705b2e63b3377d8",
      "transactionType": "CALL",
      "contractName": null,
      "contractAddress": "0xf49b2d826ef41caee234e337f3ed6b05ffb34a34",
      "function": "initializePool(address,address,uint24,uint160)",
      "arguments": [
        "0x41E94Eb019C0762f9Bfcf9Fb1E58725BfB0e7582",
        "0x1fdE0eCc619726f4cD597887C9F3b4c8740e19e2",
        "3000",
        "79228162514264337593543950336"
      ],
      "transaction": {
        "from": "0x684f947aa928d62641e8b46e126d537ffc719114",
        "to": "0xf49b2d826ef41caee234e337f3ed6b05ffb34a34",
        "gas": "0x2923a",
        "value": "0x0",
        "input": "0x6fb1461a00000000000000000000000041e94eb019c0762f9bfcf9fb1e58725bfb0e75820000000000000000000000001fde0ecc619726f4cd597887c9f3b4c8740e19e20000000000000000000000000000000000000000000000000000000000000bb80000000000000000000000000000000000000001000000000000000000000000",
        "nonce": "0xe",
        "chainId": "0x13882"
      },
      "additionalContracts": [],
      "isFixedGasLimit": false
    },
    {
      "hash": "0xd85fe819b57f0fcc1a99e2501b0d12e1d6293e10eed296491df2c8981ee53e46",
      "transactionType": "CALL",
      "contractName": null,
      "contractAddress": "0xe07801006eeba6aac227ab8134ba957c57456872",
      "function": "createPool(address,address,uint256,uint256)",
      "arguments": [
        "0x41E94Eb019C0762f9Bfcf9Fb1E58725BfB0e7582",
        "0x1fdE0eCc619726f4cD597887C9F3b4c8740e19e2",
        "100",
        "30"
      ],
      "transaction": {
        "from": "0x684f947aa928d62641e8b46e126d537ffc719114",
        "to": "0xe07801006eeba6aac227ab8134ba957c57456872",
        "gas": "0x3e577",
        "value": "0x0",
        "input": "0x884db06300000000000000000000000041e94eb019c0762f9bfcf9fb1e58725bfb0e75820000000000000000000000001fde0ecc619726f4cd597887c9f3b4c8740e19e20000000000000000000000000000000000000000000000000000000000000064000000000000000000000000000000000000000000000000000000000000001e",
        "nonce": "0xf",
        "chainId": "0x13882"
      },
      "additionalContracts": [],
      "isFixedGasLimit": false
    }
  ],
  "receipts": [
    {
      "status": "0x1",
      "cumulativeGasUsed": "0x1c212",
      "logs": [
        {
          "address": "0xf49b2d826ef41caee234e337f3ed6b05ffb34a34",
          "topics": [
            "0x24c78b6036f01b7a7113ce11530104fd1a39d7dcee6a361932d85ffb6b4b41b1",
            "0x00000000000000000000000041e94eb019c0762f9bfcf9fb1e58725bfb0e7582",
            "0x0000000000000000000000001fde0ecc619726f4cd597887c9f3b4c8740e19e2"
          ],
          "data": "0x0000000000000000000000000000000000000000000000000000000000000bb8000000000000000000000000000000000000000000000000000000000000003c0000000000000000000000000000000000000001000000000000000000000000",
          "blockHash": "0x416ae39e4ac1ee805e64df24710971be912e1d7f322402de34ebeb6cd47b68af",
          "blockNumber": "0x1ea41f9",
          "blockTimestamp": "0x6963c81f",
          "transactionHash": "0x1dd19aae2384086a59455e87a321ee4982ca86f2764d293d0705b2e63b3377d8",
          "transactionIndex": "0x0",
          "logIndex": "0x0",
          "removed": false
        },
        {
          "address": "0x0000000000000000000000000000000000001010",
          "topics": [
            "0x4dfe1bbbcf077ddc3e01291eea2d5c70c2b422b415d95645b9adcfd678cb1d63",
            "0x0000000000000000000000000000000000000000000000000000000000001010",
            "0x000000000000000000000000684f947aa928d62641e8b46e126d537ffc719114",
            "0x0000000000000000000000007ee41d8a25641000661b1ef5e6ae8a00400466b0"
          ],
          "data": "0x00000000000000000000000000000000000000000000000000561f9b6b45a1c0000000000000000000000000000000000000000000000000355e113db84bfd51000000000000000000000000000000000000000000001853680282191271e7580000000000000000000000000000000000000000000000003507f1a24d065b910000000000000000000000000000000000000000000018536858a1b47db78918",
          "blockHash": "0x416ae39e4ac1ee805e64df24710971be912e1d7f322402de34ebeb6cd47b68af",
          "blockNumber": "0x1ea41f9",
          "blockTimestamp": "0x6963c81f",
          "transactionHash": "0x1dd19aae2384086a59455e87a321ee4982ca86f2764d293d0705b2e63b3377d8",
          "transactionIndex": "0x0",
          "logIndex": "0x1",
          "removed": false
        }
      ],
      "logsBloom": "0x00000000000000000000000000040000000002000000000000000000000000000000000000000000000000000200000000008000000000000000010000000000000000000000000000000000000000800000000020000000000100000000008000000000000200000000000000000000000000000000000080000000000000000000000000000000020000000400000000000000000000000000000000010000200000002000000000000000000000000000000000000000000000000000004000000000200080000105000000000000000000400000000000100000000000000000000000000000200000010000000000000000000000000000000000100000",
      "type": "0x2",
      "transactionHash": "0x1dd19aae2384086a59455e87a321ee4982ca86f2764d293d0705b2e63b3377d8",
      "transactionIndex": "0x0",
      "blockHash": "0x416ae39e4ac1ee805e64df24710971be912e1d7f322402de34ebeb6cd47b68af",
      "blockNumber": "0x1ea41f9",
      "gasUsed": "0x1c212",
      "effectiveGasPrice": "0x30fcade21f",
      "from": "0x684f947aa928d62641e8b46e126d537ffc719114",
      "to": "0xf49b2d826ef41caee234e337f3ed6b05ffb34a34",
      "contractAddress": null
    },
    {
      "status": "0x1",
      "cumulativeGasUsed": "0x2d226",
      "logs": [
        {
          "address": "0xe07801006eeba6aac227ab8134ba957c57456872",
          "topics": [
            "0x1af6355a170ecc0327e49a9aa985a86667dc35a39b8b29f632cd215a9f496180",
            "0x0000000000000000000000000000000000000000000000000000000000000001",
            "0x0000000000000000000000001fde0ecc619726f4cd597887c9f3b4c8740e19e2",
            "0x00000000000000000000000041e94eb019c0762f9bfcf9fb1e58725bfb0e7582"
          ],
          "data": "0x0000000000000000000000000000000000000000000000000000000000000064000000000000000000000000000000000000000000000000000000000000001e",
          "blockHash": "0xe519f12adc247a2dc383ad282e195a16679318d06530e6037492a884a9840182",
          "blockNumber": "0x1ea41fa",
          "blockTimestamp": "0x6963c820",
          "transactionHash": "0xd85fe819b57f0fcc1a99e2501b0d12e1d6293e10eed296491df2c8981ee53e46",
          "transactionIndex": "0x0",
          "logIndex": "0x0",
          "removed": false
        },
        {
          "address": "0x0000000000000000000000000000000000001010",
          "topics": [
            "0x4dfe1bbbcf077ddc3e01291eea2d5c70c2b422b415d95645b9adcfd678cb1d63",
            "0x0000000000000000000000000000000000000000000000000000000000001010",
            "0x000000000000000000000000684f947aa928d62641e8b46e126d537ffc719114",
            "0x0000000000000000000000007ee41d8a25641000661b1ef5e6ae8a00400466b0"
          ],
          "data": "0x000000000000000000000000000000000000000000000000008a2fe7e8d947400000000000000000000000000000000000000000000000003507f1a24c9799230000000000000000000000000000000000000000000018536858a1b47db78918000000000000000000000000000000000000000000000000347dc1ba63be51e300000000000000000000000000000000000000000000185368e2d19c6690d058",
          "blockHash": "0xe519f12adc247a2dc383ad282e195a16679318d06530e6037492a884a9840182",
          "blockNumber": "0x1ea41fa",
          "blockTimestamp": "0x6963c820",
          "transactionHash": "0xd85fe819b57f0fcc1a99e2501b0d12e1d6293e10eed296491df2c8981ee53e46",
          "transactionIndex": "0x0",
          "logIndex": "0x1",
          "removed": false
        }
      ],
      "logsBloom": "0x00000000000000040000000000040000000002000000000000000000000000000000000000000000000000000200000000008000000000000000010000040000000100000000000000000000000000800000000000040000000100000000008000000000000000000000000000000000000000000000000080000080000000000000000000000000020000000400000000000000000000000000000000000000200000002000000000000000000000000000000000000000000000000000004000000000000000000105000000000000000000400000000000100000000840000000000000000000200000000000000000000000000000000000000080100000",
      "type": "0x2",
      "transactionHash": "0xd85fe819b57f0fcc1a99e2501b0d12e1d6293e10eed296491df2c8981ee53e46",
      "transactionIndex": "0x0",
      "blockHash": "0xe519f12adc247a2dc383ad282e195a16679318d06530e6037492a884a9840182",
      "blockNumber": "0x1ea41fa",
      "gasUsed": "0x2d226",
      "effectiveGasPrice": "0x30fcade21f",
      "from": "0x684f947aa928d62641e8b46e126d537ffc719114",
      "to": "0xe07801006eeba6aac227ab8134ba957c57456872",
      "contractAddress": null
    }
  ],
  "libraries": [],
  "pending": [],
  "returns": {},
  "timestamp": 1768146978494,
  "chain": 80002,
  "commit": "6b47cda"
}